{
  "_format": "hh-sol-artifact-1",
  "contractName": "ContractRegistry",
  "sourceName": "contracts/ContractRegistry.sol",
  "abi": [
    {
      "inputs": [],
      "stateMutability": "nonpayable",
      "type": "constructor"
    },
    {
      "anonymous": false,
      "inputs": [
        {
          "indexed": true,
          "internalType": "bytes32",
          "name": "contractId",
          "type": "bytes32"
        },
        {
          "indexed": false,
          "internalType": "bytes32",
          "name": "documentHash",
          "type": "bytes32"
        },
        {
          "indexed": false,
          "internalType": "uint256",
          "name": "timestamp",
          "type": "uint256"
        }
      ],
      "name": "ContractHashStored",
      "type": "event"
    },
    {
      "inputs": [
        {
          "internalType": "bytes32",
          "name": "",
          "type": "bytes32"
        }
      ],
      "name": "contractHashes",
      "outputs": [
        {
          "internalType": "bytes32",
          "name": "",
          "type": "bytes32"
        }
      ],
      "stateMutability": "view",
      "type": "function"
    },
    {
      "inputs": [
        {
          "internalType": "bytes32",
          "name": "contractId",
          "type": "bytes32"
        }
      ],
      "name": "getHash",
      "outputs": [
        {
          "internalType": "bytes32",
          "name": "",
          "type": "bytes32"
        }
      ],
      "stateMutability": "view",
      "type": "function"
    },
    {
      "inputs": [
        {
          "internalType": "bytes32",
          "name": "",
          "type": "bytes32"
        }
      ],
      "name": "isStored",
      "outputs": [
        {
          "internalType": "bool",
          "name": "",
          "type": "bool"
        }
      ],
      "stateMutability": "view",
      "type": "function"
    },
    {
      "inputs": [],
      "name": "owner",
      "outputs": [
        {
          "internalType": "address",
          "name": "",
          "type": "address"
        }
      ],
      "stateMutability": "view",
      "type": "function"
    },
    {
      "inputs": [
        {
          "internalType": "bytes32",
          "name": "contractId",
          "type": "bytes32"
        },
        {
          "internalType": "bytes32",
          "name": "documentHash",
          "type": "bytes32"
        }
      ],
      "name": "storeHash",
      "outputs": [],
      "stateMutability": "nonpayable",
      "type": "function"
    },
    {
      "inputs": [
        {
          "internalType": "bytes32",
          "name": "",
          "type": "bytes32"
        }
      ],
      "name": "storedAt",
      "outputs": [
        {
          "internalType": "uint256",
          "name": "",
          "type": "uint256"
        }
      ],
      "stateMutability": "view",
      "type": "function"
    },
    {
      "inputs": [
        {
          "internalType": "address",
          "name": "newOwner",
          "type": "address"
        }
      ],
      "name": "transferOwnership",
      "outputs": [],
      "stateMutability": "nonpayable",
      "type": "function"
    },
    {
      "inputs": [
        {
          "internalType": "bytes32",
          "name": "contractId",
          "type": "bytes32"
        },
        {
          "internalType": "bytes32",
          "name": "documentHash",
          "type": "bytes32"
        }
      ],
      "name": "verifyHash",
      "outputs": [
        {
          "internalType": "bool",
          "name": "",
          "type": "bool"
        }
      ],
      "stateMutability": "view",
      "type": "function"
    }
  ],
  "bytecode": "0x608060405234801561001057600080fd5b50336000806101000a81548173ffffffffffffffffffffffffffffffffffffffff021916908373ffffffffffffffffffffffffffffffffffffffff1602179055506109f2806100606000396000f3fe608060405234801561001057600080fd5b50600436106100885760003560e01c80638da5cb5b1161005b5780638da5cb5b1461014d578063c32ed2891461016b578063c3e5faea14610187578063f2fde38b146101b757610088565b80633cf5040a1461008d5780633f42aeab146100bd57806345437887146100ed578063694faeeb1461011d575b600080fd5b6100a760048036038101906100a291906105f6565b6101d3565b6040516100b49190610632565b60405180910390f35b6100d760048036038101906100d291906105f6565b6101f0565b6040516100e49190610668565b60405180910390f35b61010760048036038101906101029190610683565b610210565b6040516101149190610668565b60405180910390f35b610137600480360381019061013291906105f6565b610259565b6040516101449190610632565b60405180910390f35b610155610271565b6040516101629190610704565b60405180910390f35b61018560048036038101906101809190610683565b610295565b005b6101a1600480360381019061019c91906105f6565b610463565b6040516101ae9190610738565b60405180910390f35b6101d160048036038101906101cc919061077f565b61047b565b005b600060016000838152602001908152602001600020549050919050565b60026020528060005260406000206000915054906101000a900460ff1681565b60006002600084815260200190815260200160002060009054906101000a900460ff1680156102515750816001600085815260200190815260200160002054145b905092915050565b60016020528060005260406000206000915090505481565b60008054906101000a900473ffffffffffffffffffffffffffffffffffffffff1681565b60008054906101000a900473ffffffffffffffffffffffffffffffffffffffff1673ffffffffffffffffffffffffffffffffffffffff163373ffffffffffffffffffffffffffffffffffffffff1614610323576040517f08c379a000000000000000000000000000000000000000000000000000000000815260040161031a9061082f565b60405180910390fd5b6002600083815260200190815260200160002060009054906101000a900460ff1615610384576040517f08c379a000000000000000000000000000000000000000000000000000000000815260040161037b9061089b565b60405180910390fd5b6000801b81036103c9576040517f08c379a00000000000000000000000000000000000000000000000000000000081526004016103c090610907565b60405180910390fd5b80600160008481526020019081526020016000208190555060016002600084815260200190815260200160002060006101000a81548160ff021916908315150217905550426003600084815260200190815260200160002081905550817f4556ce90916f30497b990b6ad71b7043eb5797444ba8bb736bb1d3ec318db2358242604051610457929190610927565b60405180910390a25050565b60036020528060005260406000206000915090505481565b60008054906101000a900473ffffffffffffffffffffffffffffffffffffffff1673ffffffffffffffffffffffffffffffffffffffff163373ffffffffffffffffffffffffffffffffffffffff1614610509576040517f08c379a00000000000000000000000000000000000000000000000000000000081526004016105009061082f565b60405180910390fd5b600073ffffffffffffffffffffffffffffffffffffffff168173ffffffffffffffffffffffffffffffffffffffff1603610578576040517f08c379a000000000000000000000000000000000000000000000000000000000815260040161056f9061099c565b60405180910390fd5b806000806101000a81548173ffffffffffffffffffffffffffffffffffffffff021916908373ffffffffffffffffffffffffffffffffffffffff16021790555050565b600080fd5b6000819050919050565b6105d3816105c0565b81146105de57600080fd5b50565b6000813590506105f0816105ca565b92915050565b60006020828403121561060c5761060b6105bb565b5b600061061a848285016105e1565b91505092915050565b61062c816105c0565b82525050565b60006020820190506106476000830184610623565b92915050565b60008115159050919050565b6106628161064d565b82525050565b600060208201905061067d6000830184610659565b92915050565b6000806040838503121561069a576106996105bb565b5b60006106a8858286016105e1565b92505060206106b9858286016105e1565b9150509250929050565b600073ffffffffffffffffffffffffffffffffffffffff82169050919050565b60006106ee826106c3565b9050919050565b6106fe816106e3565b82525050565b600060208201905061071960008301846106f5565b92915050565b6000819050919050565b6107328161071f565b82525050565b600060208201905061074d6000830184610729565b92915050565b61075c816106e3565b811461076757600080fd5b50565b60008135905061077981610753565b92915050565b600060208284031215610795576107946105bb565b5b60006107a38482850161076a565b91505092915050565b600082825260208201905092915050565b7f4f6e6c79206f776e65722063616e2063616c6c20746869732066756e6374696f60008201527f6e00000000000000000000000000000000000000000000000000000000000000602082015250565b60006108196021836107ac565b9150610824826107bd565b604082019050919050565b600060208201905081810360008301526108488161080c565b9050919050565b7f436f6e7472616374206861736820616c72656164792073746f72656400000000600082015250565b6000610885601c836107ac565b91506108908261084f565b602082019050919050565b600060208201905081810360008301526108b481610878565b9050919050565b7f496e76616c696420646f63756d656e7420686173680000000000000000000000600082015250565b60006108f16015836107ac565b91506108fc826108bb565b602082019050919050565b60006020820190508181036000830152610920816108e4565b9050919050565b600060408201905061093c6000830185610623565b6109496020830184610729565b9392505050565b7f496e76616c696420616464726573730000000000000000000000000000000000600082015250565b6000610986600f836107ac565b915061099182610950565b602082019050919050565b600060208201905081810360008301526109b581610979565b905091905056fea2646970667358221220486cbd0e6f92880bae3c0ebee068afa4933ef22fdf1121210b8fd1363b9575d264736f6c63430008130033",
  "linkReferences": {},
  "deployedLinkReferences": {}
}